:020000040800F2
:10000000C8070020CD010008D5010008D70100086D
:10001000D9010008DB010008DD0100080000000034
:10002000000000000000000000000000DF010008E8
:10003000E101000800000000E3010008B50F00081E
:10004000E7010008E7010008E7010008E7010008F0
:10005000E7010008E7010008E7010008E7010008E0
:10006000E7010008E7010008E7010008E7010008D0
:10007000E7010008E7010008E7010008E7010008C0
:10008000E7010008E7010008E7010008E7010008B0
:10009000E7010008E7010008E7010008E7010008A0
:1000A000E7010008E7010008E7010008E701000890
:1000B000E7010008E7010008E7010008E701000880
:1000C000E7010008E7010008E7010008E701000870
:1000D000E701000805190008E7010008E70100082A
:1000E000E7010008E7010008E701000800F002F856
:1000F00000F05DF814A696E8000CB244B344DA456B
:1001000001D100F054F8BAE80F000FA696E83000CD
:10011000A5EB040504EB0607AAEB0704A7F101070A
:100120004FEA15154FEA3414A4F10104AC4201D38F
:1001300000F03DF813F0010F18BFFB1A43F0010364
:1001400000F001F8DBE718476C1C00008C1C000075
:10015000103A24BF78C878C1FAD8520724BF30C8F3
:1001600030C144BF04680C60704700007047000055
:100170000023002400250026103A28BF78C1FBD8B0
:10018000520728BF30C148BF0B607047782900F084
:100190007180002070471FB59DE8030000F0FEFB52
:1001A00000F0FAF91FBD10B500F05FFA10BD00F0C5
:1001B0008FFA1146FFF7EFFF01F022FD00F096FBEA
:1001C00003B4FFF7F0FF03BC00F066FD0948804769
:1001D00009480047FEE7FEE7FEE7FEE7FEE7FEE729
:1001E000FEE7FEE7FEE7FEE704480549054A064B41
:1001F00070470000D90F0008ED000008C80100207A
:10020000C8070020C8030020C80300200FB4044919
:1002100010B503AA029800F091F910BC5DF814FB28
:100220006400002070B5044685690068C10601D5E8
:10023000302600E02026C00707D070BDD4E9012198
:1002400030469047206A401C20626D1EF6D570BD76
:1002500070B5044685690078C00707D170BDD4E940
:10026000012120209047206A401C20626D1EF6D597
:1002700070BD000070B504460D4621461068AFF30E
:1002800000802188090502D50F4A7A4402E00E4A0F
:100290007A440E32002104F1240305E000F00F0639
:1002A0000009965D5E54491C0028F7D12078002390
:1002B000000704D5702D02D009B102231132204667
:1002C000BDE8704000F0E1B8C01A00002DE9F05F11
:1002D000894604464FF0000ADFF824B1FB44C0F819
:1002E00020A02046E168884700287DD0252806D038
:1002F000D4E901219047206A401C2062F1E70025E3
:100300005F462046E16888472028064607DB312EF5
:1003100005D2B81910F8200C08B10543F1E7A80779
:1003200001D525F00405C4F81CA00027C4F818A0C6
:100330002A2E09D0304601F003FD38B304EB8708BC
:10034000303EC8F8186019E059F8041B204604EB49
:1003500087029161E1688847012F064618D1E0695C
:10036000002820DA25F020051DE0D8F8180000EB61
:10037000800006EB40003038C8F818002046E168DD
:100380008847064601F0DCFC0028EED1012F0AD098
:100390002E2E08D12046E16888477F1C0646022F92
:1003A00045F02005C4DBA069002803DA404245F08F
:1003B0000105A061E80701D025F01005A6B1A6F15E
:1003C0004100192802D8203645F400654A463146D6
:1003D000204625604D46FFF7D9FE60B1012807D0C1
:1003E000ED1D25F0070000E007E000F1080978E7BF
:1003F00005F1040975E730467AE7206ABDE8F09F09
:10040000961A00004FF0013C50F8042B51F8043BC1
:100410009A4221D1A2EB0C03934313EACC1317D1D8
:1004200050F8042B51F8043B9A4215D1A2EB0C036F
:10043000934313EACC130BD150F8042B51F8043B2F
:100440009A4209D1A2EB0C03934313EACC13DBD0FD
:100450004FF00000704700BFD01A01BAB1FA81F125
:1004600001F0180122FA01F0CB40DBB2C0B2C01A91
:10047000C1F120012CFA01F3D11A914311EAC31101
:10048000E6D170477047704770472DE9F0470D4639
:1004900099469246044600F124080168880604D56E
:1004A000E06921F01001216000E00120A84201DD97
:1004B000471B00E00027A1697A1902EB0900081A1E
:1004C000A0612078C00602D42046FFF7ABFE0026CC
:1004D00008E0D4E901211AF806009047206A401C80
:1004E000761C20624E45F4DB2078C0060AD52046F3
:1004F000FFF798FE06E0D4E9012130209047206AFA
:10050000401C2062381EA7F10107F4DC07E0D4E9A3
:10051000012118F805009047206A401C2062281E1F
:10052000A5F10105F3DC2046FFF792FE20780006D6
:1005300002D50220BDE8F0870120FBE7074B70B52C
:100540000D467B4400F011F80446284600F020F8E0
:1005500010B14FF0FF3070BD204670BD97160000FF
:1005600001694A1C02610878704700B58FB0CDE977
:1005700001310021059105497944CDE90310114667
:100580006846FFF7A3FE0FB000BD0000E5FFFFFFC8
:10059000007B00F08000704710B54248542100F005
:1005A000B5F94148542100F0B1F94048542100F018
:1005B000ADF93F493B483C4A3F4B08603D490A6022
:1005C0003A491960531C0365481C106501200865F1
:1005D0003B48344A39A1784400F0EAF820B9384859
:1005E00078440A3800F08BF937482F4A35A178440F
:1005F00000F0DEF820B9344878440A3800F07FF97A
:1006000032482A4A2FA1784400F0D2F820B92F4866
:1006100078440A3800F073F940232248DC000021B6
:10062000224600F0A1F820B125487844543800F063
:1006300066F91D4822464023002100F095F820B1BC
:1006400021487844543800F05AF9184822461023BB
:10065000002100F089F8002806D01C487844BDE845
:100660001040563800F04BB910BD104870B5006D01
:1006700020F001040B4800F013F90B4800F010F9CA
:100680000A4800F00DF909E0206D20F00105204630
:1006900000F006F9204600F040F82C46002CF3D17B
:1006A00070BD00001000002064000020B800002091
:1006B000000000200400002008000020720000005C
:1006C000C917000077000000B8170000911700005C
:1006D000754600F043F9AE4605006946534620F0E2
:1006E0000700854618B020B5FFF77EFDBDE8204025
:1006F0004FF000064FF000074FF000084FF0000BDE
:10070000AC46ACE8C009ACE8C009ACE8C009ACE84C
:10071000C00921F007018D46704770B50446051FDA
:1007200000F020F90068002C14BF446870BD002C54
:1007300018BFAC423CBF20466468F8D301680A1871
:10074000AA4218BF456003D12A68054611440160DA
:1007500028684119A1421CBF6C6070BD6168696066
:1007600021680844286070BD70B5C468A50713D01F
:10077000650211D4B2F5807F09D0B2F5007F06D0B2
:10078000B2F5806F08D1012300F1240106E05D1E5F
:100790006FF07F46B54201D3012070BD0161C36196
:1007A000416024F470611143C160002070BD0000FD
:1007B0002DE9F0410C461646070047D0104600F0E0
:1007C0006FF82078611C61280AD0722802D077283F
:1007D0003CD102E00125002405E00225042402E0CA
:1007E000082448F2020511F8010B2B2806D06228D4
:1007F00009D011F8010C74280AD00BE045F003056C
:1008000044F00204EFE745F0040544F00104EAE790
:1008100044F010043846214601F072F9411C15D00D
:100820000021316171604FF40071F560F161706118
:10083000200704D530460222002100F00DF9306D6A
:1008400040F0010030653046BDE8F0810020FBE754
:100850002DE9F0410D460646104C206DC10704D02D
:10086000410804D020F00104F7E722460EE05420AE
:1008700000F0C3F807000ED0206D47F001010843D7
:1008800054212065384600F041F83A462946304662
:10089000BDE8F0418CE70020D6E700001000002002
:1008A0002DE9F04704464FF0FF380026C568D4E92B
:1008B0000497A80718D0204600F08AF9384601F0BE
:1008C0000BF9002800DA4646280502D54846FFF70E
:1008D00024FF4C21204600F019F8206D20F0010083
:1008E00020653046BDE8F0874046FBE710B504467A
:1008F000AFF300802046BDE81040FFF761BC10B5A3
:1009000000F0B0F9BDE8104000F0A6B94FF00002C9
:1009100000B5134694469646203922BFA0E80C50F5
:10092000A0E80C50B1F12001BFF4F7AF090728BFD0
:10093000A0E80C5048BF0CC05DF804EB890028BF4C
:1009400040F8042B08BF704748BF20F8022B11F075
:10095000804F18BF00F8012B704700000048704717
:100960000C010020004870471401002070477047B8
:100970007047704738B504460A4600206946AFF311
:100980000080002808BF38BD02460099204600F0CC
:100990008FF9012038BD012000F0DEB9F8B5AFF3C2
:1009A0000080054600200C460C2000BF0646A81912
:1009B000A0420DD9324669460020AFF300800700FF
:1009C00008BF00F0C9F90098A04218BF0546C41935
:1009D000FFF7C8FF05600746F01D20F00700461925
:1009E000284600F05FF9B44208BFF8BDA21B3146AB
:1009F0003868BDE8F84000F05BB970B50646FFF70F
:100A0000B1FF056806F10B0020F00704B4429CBF5B
:100A1000002070BD2B466A68BAB11068A04210D39E
:100A200004F1080188423CBF5068586007D3516800
:100A3000101941601168091B016058601460101D95
:100A400070BD13465268002AE7D121462846FFF7B9
:100A500091FF0028DED170BD2DE9F0410446164615
:100A60000D464769007B80072ED0384601F040F8DC
:100A700050BB3EB3012E02D0022E25D104E0204609
:100A800000F030F905441DE0384601F02FF8E16828
:100A9000002841F01001E16005DA204600F058F826
:100AA0000120BDE8F081C9030BD56268E16A91427B
:100AB00000D81146A26911442269891A814200DDD9
:100AC00008460544002D01DA0220EAE7E16A606881
:100AD000E268814206D29103E06203D522F400313C
:100AE00041F01002A6690027AE4213DCE16A8142A0
:100AF00001D90B4600E0034603EB060C2369ACEB7F
:100B0000030CAC4506DD814201D98C4600E08446E9
:100B10009C4505D1A760276042F02000A5620DE04A
:100B2000AD1BE669AE1B8142A66000D90846C01A1B
:100B3000281A20605819606022F0200003490840FC
:100B4000E060002084F84870ABE70000BFCFD7FF1B
:100B5000C16821F4001141F08001C1600021816071
:100B6000016070472DE9F74F15460C464FF0FF3BEB
:100B70003848D768D2F814A0074209D05046A9696E
:100B800000F0F0FF002819DB3248C0430740EF6057
:100B90004FF000496FF000484C4501D3464600E055
:100BA000264600993B465046324600F0DFFFA969D1
:100BB00020F00042B21A1144A96128B12846FFF77B
:100BC000C7FF5846BDE8FE8FA41BE5D10020F9E71A
:100BD00070B504460569C06A6168884200D8084655
:100BE000E16821F42011E160C90312D5A84208D0C0
:100BF0002246411B2846FFF7B5FF10B14FF0FF30EA
:100C000070BD0020E562C4E90150E06820F4803046
:100C1000E060002070BD10B50446C06820F02000E0
:100C2000E060A16AA06988420DD02046FFF7D0FF9E
:100C3000E06820F4405040F01000E060A06AA0613D
:100C40002069E062606044F24001E0688843E0604F
:100C500010BD000010000200002801D000F01CB8F8
:100C60007047000010B5014602A000F05CF80120BA
:100C700010BD000053494752545245443A20526532
:100C80006469726563743A2063616E2774206F70C3
:100C9000656E3A200000000001491820ABBEFEE757
:100CA0002600020000210160416070470C2070475F
:100CB000034640688C46002818BF88423CBF034664
:100CC0004068F8D318681844884207D00CF1030034
:100CD00020F00700001D411A521A0146081D0A6043
:100CE000FFF71BBD10B50146C268900703D0900600
:100CF00007D5886A0AE000F037F801210160881EF4
:100D000010BD8B69486818440B69C01A91F84830C7
:100D10001BB191F84910401A10BD1103FCD50028F1
:100D2000FADD401E10BD70B505460C460A2000E0F5
:100D30006D1C00F02DFF35B128780028F8D102E0B5
:100D4000641C00F025FF14B120780028F8D1BDE81C
:100D500070400A2000F01CBF10B500F009F8BDE893
:100D60001040FFF779BF7047004870470C01002022
:100D700010B5012805D0002103A0FFF7D4FF012002
:100D800010BD09A1F8E7000053494752544D454DA5
:100D90003A204F7574206F662068656170206D651C
:100DA0006D6F7279000000003A2048656170206D17
:100DB000656D6F727920636F72727570746564000F
:100DC000CA7802F00F0CD30644BF8B784CEA030CB0
:100DD0002DE9F04709880B0625D082465AF8144BB6
:100DE00000F1100E00254FF001094FF00F08002709
:100DF00006E000BF1E600137082F05F1040511D081
:100E000009FA07F60E42F6D008FA05F324EA0303BE
:100E10000CFA05F41C43282A5346EBD0482AEAD1A1
:100E20007346E7E70460B1F5807F38BFBDE8F0871F
:100E3000436800F1100E00F1140900254FF4807A88
:100E40004FF00F08002705E034600137082F05F147
:100E5000040512D00AFA07F404EA0106A642F4D106
:100E600008FA05F6B3430CFA05F63343282A4E4632
:100E7000EAD0482AE9D17646E6E74360BDE8F08744
:100E80004161704701617047002941F21C01C4F2C1
:100E900002010A680CBF22EA000010430860704794
:100EA000002941F21801C4F202010A680CBF22EACB
:100EB000000010430860704710B541F20404C4F20A
:100EC0000204226802F00C02082A41F20022C0F259
:100ED0007A0212D12368D4F800C0C3F3834E5FEACC
:100EE000CC330EF1020C02D523689B0303D540F6E8
:100EF0000012C0F23D020CFB02F20260226841F6D1
:100F00008B53C2F30312C0F600039A5C0168D14010
:100F100041602268C2F302229A5C21FA02F28260E6
:100F20002268C2F3C2229A5C41F68753D140C16065
:100F30002268C0F60003C2F381329A5CB1FBF2F181
:100F4000016110BD0288002918BF012122F0400272
:100F500042EA8111018070470089084018BF0120D2
:100F60007047000080897047818170472DE9F0410A
:100F700002880B8802F4415C4A88B1F804E043EA35
:100F80000C03CC881A430D8942EA0E024E89224393
:100F90008F892A43B1F80E8032433A4342EA08026D
:100FA0000280828B22F400628283098A0182BDE87A
:100FB000F081000040F20C00C2F200000168013133
:100FC000016070474EF21000CEF200006FF07F41DA
:100FD000416007210160704782B041F20400C4F211
:100FE000020050F8041C002241F0010140F8041CEA
:100FF0000168CFF6FF021140016050F8041C4FF663
:10100000FF72CFF6F662114040F8041C50F8041C41
:1010100021F4802140F8041C016821F4FE010160E4
:101020004FF41F01416000210191009150F8041C10
:1010300041F4803140F8041C50F8041C01F40031E4
:101040000091019901310191009919B90199B1F506
:10105000A06FF1D150F8041C890354BF0021012175
:1010600000910099012936D142F20001C4F2020137
:101070000A6842F010020A600A6822F007020A6059
:101080000A6842F002020A600168016001680160BA
:10109000016841F480610160016821F47C11016004
:1010A000016841F4E811016050F8041C41F08071BE
:1010B00040F8041C50F8041C8901FBD5016821F09C
:1010C00003010160016841F002010160016801F063
:1010D0000C010829FAD14EF60850CEF200004FF06C
:1010E0000061016002B07047B0B540F60044C4F240
:1010F000010420464FF40061FFF7C2FEA82000F073
:10110000EBFB002000F0E8FB054620464FF40061B1
:10111000FFF7B8FEA80718BFB0BD20464FF4006126
:10112000FFF7AEFEA82000F0D7FB002000F0D4FBB4
:10113000054620464FF40061FFF7A4FE20464FF419
:10114000006145F00305FFF79BFE282000F0C4FB7B
:10115000284600F0C1FB20464FF40061BDE8B040D6
:10116000FFF790BEB0B582B040F60045C4F201056D
:10117000044628464FF40061FFF782FE1A2000F073
:10118000ABFB002000F0A8FB28464FF40061FFF7FE
:1011900079FE42F2930020800DF106050C202146D5
:1011A00002222346009500F0B9F908B102B0B0BDA3
:1011B00000214FF0FF3200BFA3185B780132032AF1
:1011C00081EA0301F8D12279914218BF022002B0CE
:1011D000B0BD00002DE9F04140F60045C4F2010524
:1011E0000E46074628464FF400619046FFF748FE3A
:1011F0008A2000F071FB002000F06EFB04462846B8
:101200004FF40061FFF73EFE28464FF40061FFF700
:1012100037FE0A2000F060FB04F0FB0000F05CFBEE
:1012200028464FF40061FFF72DFE28464FF4006179
:10123000FFF726FE942000F04FFB002000F04CFB4F
:10124000044628464FF40061FFF71CFE28464FF481
:10125000006144F08004FFF713FE142000F03CFB13
:10126000204600F039FB28464FF40061FFF70AFEE4
:10127000A6B1013F17F8014F28464FF40061FFF770
:10128000FFFD122000F028FB204600F025FB284639
:101290004FF40061FFF7F6FD013EEBD128464FF415
:1012A0000061FFF7EDFD022000F016FB032000F0C7
:1012B00013FB28464FF40061FFF7E4FDFF2400BF55
:1012C00028464FF40061FFF7DBFD8A2000F004FBA5
:1012D000002000F001FB064628464FF40061FFF7AE
:1012E000D1FD013C200602D016F00400E8D02846CB
:1012F0004FF40061FFF7C4FDC42000F0EDFA0020B8
:1013000000F0EAFA044628464FF40061FFF7BAFD00
:1013100028464FF4006188F80040FFF7B1FDC22075
:1013200000F0DAFA002000F0D7FA044628464FF41D
:101330000061FFF7A7FD88F80140BDE8F0810000DB
:10134000B0B584B040F60045C4F201050446284615
:101350004FF40061FFF794FD1A2000F0BDFA07205A
:1013600000F0BAFA28464FF40061FFF78BFD262003
:10137000207002AD0C20214601222346009500F08A
:10138000CDF8BDF80810054681F01000284318BFBD
:10139000022503D12046FFF7E5FE054650200DF15A
:1013A0000A04ADF80A00A21C20460221FFF712FF32
:1013B0000DF10E0C0C20214604222346CDF800C06E
:1013C00000F0ACF8284604B0B0BD000010B500F045
:1013D0008BF800F041FA40F60044C4F201042046C4
:1013E0004FF40061FFF74CFD022000F075FA0F206A
:1013F00000F072FA20464FF40061FFF743FD2046EB
:101400004FF40061FFF73CFD542000F065FA8D2099
:1014100000F062FA20464FF40061FFF733FD2046EA
:101420004FF40061FFF72CFD562000F055FA3E20E6
:1014300000F052FA20464FF40061FFF723FD2046EA
:101440004FF40061FFF71CFD5A2000F045FA1E2002
:1014500000F042FA20464FF40061FFF713FD2046EA
:101460004FF40061FFF70CFD582000F035FA002022
:1014700000F032FA20464FF40061FFF703FD2046EA
:101480004FF40061FFF7FCFC4C2000F025FA7020BF
:1014900000F022FA20464FF40061FFF7F3FC2046EB
:1014A0004FF40061FFF7ECFC2A2000F015FA402011
:1014B00000F012FA20464FF40061FFF7E3FC2046EB
:1014C0004FF40061FFF7DCFC222000F005FA3D201C
:1014D00000F002FA20464FF40061FFF7D3FCBDE8AC
:1014E0001040FFF701BE000010B582B008200121B6
:1014F000FFF7D6FC40F6000040F60044C1F20300BE
:10150000C4F20104019001A92046FFF759FC2046CE
:101510004FF40061FFF7B6FC02B010BD2DE9F04FAB
:1015200081B0174683460C288946009307D0BBF14B
:101530000E0F09D14FF011084FF0120A08E04FF0DA
:1015400031084FF0770A03E04FF001084FF0000A2E
:1015500040F60044C4F2010420464FF400610AF151
:101560008005FFF78DFC042000F0B6F9284600F056
:10157000B3F920464FF40061FFF784FC20464FF496
:101580000061FFF77DFC882000F0A6F9002000F044
:10159000A3F9054620464FF40061FFF773FC20468F
:1015A0004FF40061FFF76CFC082000F095F905F09E
:1015B0007F0000F091F920464FF40061FFF762FCD4
:1015C00020464FF40061FFF75BFC942000F084F9A3
:1015D000002000F081F9054620464FF40061FFF736
:1015E00051FC20464FF4006145F08005FFF748FCB0
:1015F000142000F071F9284600F06EF920464FF4EF
:101600000061FFF73FFC20464FF40061FFF738FC14
:10161000022000F061F9002000F05EF920464FF44E
:101620000061FFF72FFCAFB1A9F1010616F8015FC9
:1016300020464FF40061FFF723FC122000F04CF924
:10164000284600F049F920464FF40061FFF71AFCE4
:10165000013FEBD120464FF40061FFF711FC02205F
:1016600000F03AF9584600F037F920464FF400618F
:10167000FFF708FCBBF10C0F22D120464FF40061AC
:10168000FFF7FEFB9A2000F027F9002000F024F974
:10169000054620464FF40061FFF7F4FB20464FF467
:1016A000006145F08005FFF7EBFB1A2000F014F90C
:1016B000284600F011F920464FF40061FFF7E2FBE5
:1016C000DDF828904FF4FA6720464FF40061FFF7E9
:1016D000D7FB882000F000F9002000F0FDF8054657
:1016E00020464FF40061FFF7CDFB013F380400F0C6
:1016F0008B8018EA050FE7D020464FF40061FFF712
:10170000BFFB9A2000F0E8F8002000F0E5F807465B
:1017100020464FF40061FFF7B5FB20464FF400610F
:10172000FFF7AEFB1A2000F0D7F807F07F0000F0BB
:10173000D3F820464FF40061FFF7A4FB20464FF496
:101740000061FFF79DFB8C2000F0C6F8002000F040
:10175000C3F8074620464FF40061FFF793FB17F0EC
:101760001B0F73D10AEA0500BBF10C0F00F0010852
:101770006ED120464FF40061FFF782FB942000F009
:10178000ABF8002000F0A8F8064620464FF40061B0
:10179000FFF778FB20464FF40061FFF771FB9820BC
:1017A00000F09AF8002000F097F8074620464FF422
:1017B0000061FFF767FB17F0070040EAC600A0F1E1
:1017C000080008BFF000A9F80000012E98BF01260C
:1017D000102E28BF10260098451E00BF20464FF44B
:1017E0000061FFF74DFB922000F076F8002000F03A
:1017F00073F8074620464FF40061FFF743FB013EB4
:1018000005F8017FEAD123E020464FF40061FFF79D
:1018100037FB9A2000F060F8002000F05DF80546E4
:1018200020464FF40061FFF72DFB20464FF4006186
:10183000FFF726FB1A2000F04FF805F07F0000F0BC
:101840004BF820464FF40061FFF71CFB4FF00208F5
:10185000404601B0BDE8F08F70B586B04FF48040CF
:101860000121FFF711FB08200121FFF719FB43F6C7
:1018700000044AF20000C4F20004C1F6030004F5BB
:10188000544505AE059028463146FFF799FA44F2D3
:101890000000C0F20340059028463146FFF790FA59
:1018A0004FF08270CDF802000020CDF806004FF016
:1018B0000070CDF80A001820CDF80E000720ADF812
:1018C00012000DF102012046FFF750FB20460121D6
:1018D000FFF738FB06B070BD10B543F60004C4F244
:1018E000000401462046FFF73FFB00BF2046802151
:1018F000FFF732FB0128F9D02046FFF733FBC0B2D7
:1019000010BD000010B543F60004C4F201042046E7
:1019100040F2255100F04CF830B3204600F0D4F8E6
:10192000C1B20A2940F2C211C2F2000113D10878F3
:1019300040F2C412C2F2000210800A7840F2711321
:10194000C2F200030020985440F2C112C2F2000219
:101950000123137007E00A7840F27113C2F200030A
:101960009854087801300870204640F22551BDE8AF
:10197000104000F005B80000C94301807047000026
:10198000090A012202FA01F1C943018070470000EF
:101990008289002918BF012122F4005242EA413114
:1019A000818170470088084018BF012070470000FF
:1019B000C1F34212022A06D0012A14BF00F1140218
:1019C00000F10C0201E000F110021288008801F021
:1019D0001F03090ADA40C840104000F001007047B8
:1019E000C1F3421301F01F0C1421022B08BF102178
:1019F000012B4FF0010308BF0C21002A03FA0CF25F
:101A000043580CBF23EA02021A43425070470000B9
:101A100070B586B00446008A0D46C98820F440504F
:101A200008432082A0894EF6F3110840A9882A892C
:101A30006B89084310431843A081A08AA98920F428
:101A40004070084301AEA0823046FFF735FA43F6F6
:101A5000000106F10800C4F201018C4208BF06F142
:101A60000C0000681922B4F90C1050432A680123B5
:101A7000B1F1FF3FC8BF022302FA03F1B0FBF1F05E
:101A800048F21F51C5F2EB11A0FB01235A096FF078
:101A9000630302FB0300B4F90C300326B3F1FF3FEC
:101AA000C8BF042600FA06F000F13200A0FB0101D5
:101AB0004FF00700C8BF0F2000EA511040EA0210A3
:101AC000208106B070BD000080886FF35F207047F2
:101AD0006FF35F218180704748F20401411A0020B2
:101AE00011F1030F38BF4FF0FF30704700207047EF
:101AF00048F20101411A0020032938BF0120704734
:101B0000002804BF4FF0FF30704710B5044600783E
:101B10003A281CBF4FF0FF3010BD41F6A351C0F66C
:101B200000012046FEF76EFCB0B141F6AA51C0F6A6
:101B300000012046FEF766FC88B141F69B51C0F6D5
:101B400000012046FEF75EFC01464FF0FF30002901
:101B500008BF48F2030010BD48F2010010BD48F272
:101B6000020010BD4FF0FF307047000048F2030143
:101B700088420AD048F2020188421CBF4FF0FF3071
:101B8000704712B1013A00BEFCD10020704700003E
:101B900000BE7047002808BF7047B0B54EF2180E5F
:101BA00040F20C0241F6401CCEF2000EC2F20002DE
:101BB000C0F2010C1168DEF800304CEA016100BF90
:101BC0001468DEF8005003EB04640C1B2C44002C5A
:101BD000F6DC0138EED1BDE8B0407047B0B543F651
:101BE0000005C4F201050446C1B22846FFF770FFA4
:101BF00028468021FFF7D6FE0028F9D02046B0BD48
:101C000082B041F20004C4F20104FFF7DBF9FFF7F0
:101C1000DDFB4FF4165000F035F840F26C15C2F2BF
:101C200000050FF2400800BF2846FFF789FB002897
:101C3000FAD129786A78AB78EE782F794046CDE9E9
:101C40000067FEF7E3FA20464FF40051FFF71AF958
:101C50004FF4FA60FFF79EFF20464FF40051FFF764
:101C60000FF9E1E749443A203078253032582530E1
:101C70003258253032582530325825303258200A13
:101C800000000000F0B585B005464FF4804001210A
:101C9000FFF706F904200121FFF702F943F60004DB
:101CA00040F20020C4F20104C1F60300A4F540563E
:101CB00004AF049030463946FFF782F84FF4806055
:101CC000ADF8100048208DF8130030463946FFF774
:101CD00077F8009500254FF44020CDE90150694682
:101CE0002046ADF80C50FFF793FE20464021FFF749
:101CF00043FE204640F225510122FFF771FE4EF2CD
:101D00000410CEF20000202101604EF22540CEF2F8
:101D100000001021017020460121FFF739FE40F23A
:101D2000C110C2F20000057040F2C210C2F2000001
:101D3000057040F2C410C2F20000058005B0F0BD8D
:101D400030380A2801D20120704700207047303116
:101D500032333435363738394142434445464030D2
:101D60005800303132333435363738396162636484
:101D700065664030780004000008000000000000A4
:101D8000000200010000100204060800000000012B
:101D900002030401020304060708093A53544445A8
:101DA0005252003A535444494E003A5354444F550A
:101DB00054000000D81D00080000002010000000A2
:101DC00050010008E81D000810000020B8070000BE
:101DD000700100080000000000000000000000008A
:081DE0000000000001000000FA
:04000005080000ED02
:00000001FF
